{
  "contractName": "Transactions",
  "abi": [
    {
      "inputs": [],
      "stateMutability": "nonpayable",
      "type": "constructor"
    },
    {
      "anonymous": false,
      "inputs": [
        {
          "indexed": false,
          "internalType": "bool",
          "name": "completed",
          "type": "bool"
        }
      ],
      "name": "TransactionCreated",
      "type": "event"
    },
    {
      "anonymous": false,
      "inputs": [
        {
          "indexed": false,
          "internalType": "bool",
          "name": "completed",
          "type": "bool"
        }
      ],
      "name": "UserAdded",
      "type": "event"
    },
    {
      "inputs": [],
      "name": "locked",
      "outputs": [
        {
          "internalType": "bool",
          "name": "",
          "type": "bool"
        }
      ],
      "stateMutability": "view",
      "type": "function",
      "constant": true
    },
    {
      "inputs": [],
      "name": "transactionCount",
      "outputs": [
        {
          "internalType": "uint256",
          "name": "",
          "type": "uint256"
        }
      ],
      "stateMutability": "view",
      "type": "function",
      "constant": true
    },
    {
      "inputs": [
        {
          "internalType": "uint256",
          "name": "",
          "type": "uint256"
        }
      ],
      "name": "transactionMapping",
      "outputs": [
        {
          "internalType": "uint256",
          "name": "sender",
          "type": "uint256"
        },
        {
          "internalType": "uint256",
          "name": "receiver",
          "type": "uint256"
        },
        {
          "internalType": "uint256",
          "name": "timestamp",
          "type": "uint256"
        },
        {
          "internalType": "uint256",
          "name": "amount",
          "type": "uint256"
        }
      ],
      "stateMutability": "view",
      "type": "function",
      "constant": true
    },
    {
      "inputs": [],
      "name": "userCount",
      "outputs": [
        {
          "internalType": "uint256",
          "name": "",
          "type": "uint256"
        }
      ],
      "stateMutability": "view",
      "type": "function",
      "constant": true
    },
    {
      "inputs": [
        {
          "internalType": "uint256",
          "name": "",
          "type": "uint256"
        }
      ],
      "name": "userMapping",
      "outputs": [
        {
          "internalType": "address",
          "name": "id",
          "type": "address"
        },
        {
          "internalType": "string",
          "name": "firstName",
          "type": "string"
        },
        {
          "internalType": "string",
          "name": "lastName",
          "type": "string"
        },
        {
          "internalType": "uint256",
          "name": "balance",
          "type": "uint256"
        }
      ],
      "stateMutability": "view",
      "type": "function",
      "constant": true
    },
    {
      "inputs": [
        {
          "internalType": "string",
          "name": "_firstName",
          "type": "string"
        },
        {
          "internalType": "string",
          "name": "_lastName",
          "type": "string"
        }
      ],
      "name": "addPerson",
      "outputs": [],
      "stateMutability": "nonpayable",
      "type": "function"
    },
    {
      "inputs": [
        {
          "internalType": "address",
          "name": "id",
          "type": "address"
        }
      ],
      "name": "isUserRegistered",
      "outputs": [
        {
          "internalType": "bool",
          "name": "success",
          "type": "bool"
        }
      ],
      "stateMutability": "view",
      "type": "function",
      "constant": true
    },
    {
      "inputs": [
        {
          "internalType": "uint256",
          "name": "_to",
          "type": "uint256"
        }
      ],
      "name": "transfer",
      "outputs": [],
      "stateMutability": "payable",
      "type": "function",
      "payable": true
    }
  ],
  "bytecode": "0x608060405260008055600060015534801561001957600080fd5b506110a3806100296000396000f3fe60806040526004361061007b5760003560e01c806322f5b58d1161004e57806322f5b58d146101445780638e3036c91461016d578063b77bf600146101ad578063cf309012146101d85761007b565b806307973ccf1461008057806312514bba146100ab578063140ab9da146100c7578063163f752214610107575b600080fd5b34801561008c57600080fd5b50610095610203565b6040516100a29190610a6a565b60405180910390f35b6100c560048036038101906100c09190610ac5565b610209565b005b3480156100d357600080fd5b506100ee60048036038101906100e99190610ac5565b610574565b6040516100fe9493929190610af2565b60405180910390f35b34801561011357600080fd5b5061012e60048036038101906101299190610b95565b6105a4565b60405161013b9190610bdd565b60405180910390f35b34801561015057600080fd5b5061016b60048036038101906101669190610d3e565b610647565b005b34801561017957600080fd5b50610194600480360381019061018f9190610ac5565b61069c565b6040516101a49493929190610e4d565b60405180910390f35b3480156101b957600080fd5b506101c26107fc565b6040516101cf9190610a6a565b60405180910390f35b3480156101e457600080fd5b506101ed610802565b6040516101fa9190610bdd565b60405180910390f35b60005481565b600260009054906101000a900460ff1615610259576040517f08c379a000000000000000000000000000000000000000000000000000000000815260040161025090610eec565b60405180910390fd5b6001600260006101000a81548160ff021916908315150217905550600080600090505b60005481101561035e573373ffffffffffffffffffffffffffffffffffffffff166003600083815260200190815260200160002060000160009054906101000a900473ffffffffffffffffffffffffffffffffffffffff1673ffffffffffffffffffffffffffffffffffffffff16036102f75780915061035e565b60016000546103069190610f3b565b810361034b577f27e5837e9f846a7415fdb64654d2b9165faac1fcbce4e7ed63453bbb381ad8e0600060405161033c9190610bdd565b60405180910390a15050610556565b808061035690610f6f565b91505061027c565b5034600360008481526020019081526020016000206003015410156103bb577f27e5837e9f846a7415fdb64654d2b9165faac1fcbce4e7ed63453bbb381ad8e060006040516103ad9190610bdd565b60405180910390a150610556565b346003600083815260200190815260200160002060030160008282546103e19190610f3b565b925050819055503460036000848152602001908152602001600020600301600082825461040e9190610fb7565b9250508190555061041d610948565b8181600001818152505082816020018181525050348160600181815250504281604001818152505080600460006001548152602001908152602001600020600082015181600001556020820151816001015560408201518160020155606082015181600301559050506001600081548092919061049990610f6f565b91905055506003600084815260200190815260200160002060000160009054906101000a900473ffffffffffffffffffffffffffffffffffffffff1673ffffffffffffffffffffffffffffffffffffffff166108fc349081150290604051600060405180830381858888f1935050505015801561051a573d6000803e3d6000fd5b507f27e5837e9f846a7415fdb64654d2b9165faac1fcbce4e7ed63453bbb381ad8e0600160405161054b9190610bdd565b60405180910390a150505b6000600260006101000a81548160ff02191690831515021790555050565b60046020528060005260406000206000915090508060000154908060010154908060020154908060030154905084565b600080600090505b60005481101561063c578273ffffffffffffffffffffffffffffffffffffffff166003600083815260200190815260200160002060000160009054906101000a900473ffffffffffffffffffffffffffffffffffffffff1673ffffffffffffffffffffffffffffffffffffffff1603610629576001915050610642565b808061063490610f6f565b9150506105ac565b50600090505b919050565b610650336105a4565b6106985761065f338383610815565b7f6d160ec14baac55bfc8421ebcc8f85b984e3350ae28d89a3f43a7e6b304d89e0600160405161068f9190610bdd565b60405180910390a15b5050565b60036020528060005260406000206000915090508060000160009054906101000a900473ffffffffffffffffffffffffffffffffffffffff16908060010180546106e59061103c565b80601f01602080910402602001604051908101604052809291908181526020018280546107119061103c565b801561075e5780601f106107335761010080835404028352916020019161075e565b820191906000526020600020905b81548152906001019060200180831161074157829003601f168201915b5050505050908060020180546107739061103c565b80601f016020809104026020016040519081016040528092919081815260200182805461079f9061103c565b80156107ec5780601f106107c1576101008083540402835291602001916107ec565b820191906000526020600020905b8154815290600101906020018083116107cf57829003601f168201915b5050505050908060030154905084565b60015481565b600260009054906101000a900460ff1681565b61081d610970565b83816000019073ffffffffffffffffffffffffffffffffffffffff16908173ffffffffffffffffffffffffffffffffffffffff16815250508281602001819052508181604001819052508373ffffffffffffffffffffffffffffffffffffffff163181606001818152505080600360008054815260200190815260200160002060008201518160000160006101000a81548173ffffffffffffffffffffffffffffffffffffffff021916908373ffffffffffffffffffffffffffffffffffffffff16021790555060208201518160010190805190602001906109009291906109ae565b50604082015181600201908051906020019061091d9291906109ae565b506060820151816003015590505060008081548092919061093d90610f6f565b919050555050505050565b6040518060800160405280600081526020016000815260200160008152602001600081525090565b6040518060800160405280600073ffffffffffffffffffffffffffffffffffffffff1681526020016060815260200160608152602001600081525090565b8280546109ba9061103c565b90600052602060002090601f0160209004810192826109dc5760008555610a23565b82601f106109f557805160ff1916838001178555610a23565b82800160010185558215610a23579182015b82811115610a22578251825591602001919060010190610a07565b5b509050610a309190610a34565b5090565b5b80821115610a4d576000816000905550600101610a35565b5090565b6000819050919050565b610a6481610a51565b82525050565b6000602082019050610a7f6000830184610a5b565b92915050565b6000604051905090565b600080fd5b600080fd5b610aa281610a51565b8114610aad57600080fd5b50565b600081359050610abf81610a99565b92915050565b600060208284031215610adb57610ada610a8f565b5b6000610ae984828501610ab0565b91505092915050565b6000608082019050610b076000830187610a5b565b610b146020830186610a5b565b610b216040830185610a5b565b610b2e6060830184610a5b565b95945050505050565b600073ffffffffffffffffffffffffffffffffffffffff82169050919050565b6000610b6282610b37565b9050919050565b610b7281610b57565b8114610b7d57600080fd5b50565b600081359050610b8f81610b69565b92915050565b600060208284031215610bab57610baa610a8f565b5b6000610bb984828501610b80565b91505092915050565b60008115159050919050565b610bd781610bc2565b82525050565b6000602082019050610bf26000830184610bce565b92915050565b600080fd5b600080fd5b6000601f19601f8301169050919050565b7f4e487b7100000000000000000000000000000000000000000000000000000000600052604160045260246000fd5b610c4b82610c02565b810181811067ffffffffffffffff82111715610c6a57610c69610c13565b5b80604052505050565b6000610c7d610a85565b9050610c898282610c42565b919050565b600067ffffffffffffffff821115610ca957610ca8610c13565b5b610cb282610c02565b9050602081019050919050565b82818337600083830152505050565b6000610ce1610cdc84610c8e565b610c73565b905082815260208101848484011115610cfd57610cfc610bfd565b5b610d08848285610cbf565b509392505050565b600082601f830112610d2557610d24610bf8565b5b8135610d35848260208601610cce565b91505092915050565b60008060408385031215610d5557610d54610a8f565b5b600083013567ffffffffffffffff811115610d7357610d72610a94565b5b610d7f85828601610d10565b925050602083013567ffffffffffffffff811115610da057610d9f610a94565b5b610dac85828601610d10565b9150509250929050565b610dbf81610b57565b82525050565b600081519050919050565b600082825260208201905092915050565b60005b83811015610dff578082015181840152602081019050610de4565b83811115610e0e576000848401525b50505050565b6000610e1f82610dc5565b610e298185610dd0565b9350610e39818560208601610de1565b610e4281610c02565b840191505092915050565b6000608082019050610e626000830187610db6565b8181036020830152610e748186610e14565b90508181036040830152610e888185610e14565b9050610e976060830184610a5b565b95945050505050565b7f4e6f207265656e7472616e637900000000000000000000000000000000000000600082015250565b6000610ed6600d83610dd0565b9150610ee182610ea0565b602082019050919050565b60006020820190508181036000830152610f0581610ec9565b9050919050565b7f4e487b7100000000000000000000000000000000000000000000000000000000600052601160045260246000fd5b6000610f4682610a51565b9150610f5183610a51565b925082821015610f6457610f63610f0c565b5b828203905092915050565b6000610f7a82610a51565b91507fffffffffffffffffffffffffffffffffffffffffffffffffffffffffffffffff8203610fac57610fab610f0c565b5b600182019050919050565b6000610fc282610a51565b9150610fcd83610a51565b9250827fffffffffffffffffffffffffffffffffffffffffffffffffffffffffffffffff0382111561100257611001610f0c565b5b828201905092915050565b7f4e487b7100000000000000000000000000000000000000000000000000000000600052602260045260246000fd5b6000600282049050600182168061105457607f821691505b6020821081036110675761106661100d565b5b5091905056fea2646970667358221220a9cff8449e3ad13366c4aaee56d58e28f96b53e9f61636ee674245afb865cda464736f6c634300080e0033",
  "immutableReferences": {},
  "source": "// SPDX-License-Identifier: MIT\r\npragma solidity ^0.8.0;\r\n\r\ncontract Transactions {\r\n    uint256 public userCount = 0;\r\n    uint256 public transactionCount = 0;\r\n    bool public locked;\r\n\r\n    mapping(uint256 => Person) public userMapping;\r\n    mapping(uint256 => Transaction) public transactionMapping;\r\n\r\n    event TransactionCreated(bool completed);\r\n\r\n    event UserAdded(bool completed);\r\n\r\n    struct Person {\r\n        address id;\r\n        string firstName;\r\n        string lastName;\r\n        uint256 balance;\r\n    }\r\n\r\n    struct Transaction {\r\n        uint256 sender;\r\n        uint256 receiver;\r\n        uint256 timestamp;\r\n        uint256 amount;\r\n    }\r\n\r\n    constructor() public {}\r\n\r\n    function addPerson(string memory _firstName, string memory _lastName)\r\n        public\r\n    {\r\n        if (isUserRegistered(msg.sender)) {\r\n            return;\r\n        }\r\n\r\n        registerPerson(msg.sender, _firstName, _lastName);\r\n        emit UserAdded(true);\r\n        return;\r\n    }\r\n\r\n    function isUserRegistered(address id) public view returns (bool success) {\r\n        for (uint256 i = 0; i < userCount; i++) {\r\n            if (userMapping[i].id == id) {\r\n                return true;\r\n            }\r\n        }\r\n\r\n        return false;\r\n    }\r\n\r\n    function registerPerson(\r\n        address id,\r\n        string memory _firstName,\r\n        string memory _lastName\r\n    ) private {\r\n        Person memory newPerson;\r\n        newPerson.id = id;\r\n        newPerson.firstName = _firstName;\r\n        newPerson.lastName = _lastName;\r\n        newPerson.balance = id.balance;\r\n        userMapping[userCount] = newPerson;\r\n        userCount++;\r\n    }\r\n\r\n    modifier noReentrancy() {\r\n        require(!locked, \"No reentrancy\");\r\n\r\n        locked = true;\r\n        _;\r\n        locked = false;\r\n    }\r\n\r\n    function transfer(uint256 _to) public payable noReentrancy {\r\n        uint256 _from;\r\n        for (uint256 i = 0; i < userCount; i++) {\r\n            if (userMapping[i].id == msg.sender) {\r\n                _from = i;\r\n                break;\r\n            }\r\n            if (i == userCount - 1) {\r\n                emit TransactionCreated(false);\r\n                return;\r\n            }\r\n        }\r\n        if (userMapping[_to].balance < msg.value) {\r\n            emit TransactionCreated(false);\r\n            return;\r\n        }\r\n\r\n        userMapping[_from].balance -= msg.value;\r\n        userMapping[_to].balance += msg.value;\r\n        Transaction memory newTransaction;\r\n        newTransaction.sender = _from;\r\n        newTransaction.receiver = _to;\r\n        newTransaction.amount = msg.value;\r\n        newTransaction.timestamp = block.timestamp;\r\n        transactionMapping[transactionCount] = newTransaction;\r\n        transactionCount++;\r\n\r\n        payable(userMapping[_to].id).transfer(msg.value);\r\n\r\n        emit TransactionCreated(true);\r\n    }\r\n}\r\n",
  "sourcePath": "C:\\Users\\felix\\Downloads\\TP3\\TP3\\truffle\\contracts\\Transactions.sol",
  "compiler": {
    "name": "solc",
    "version": "0.8.14+commit.80d49f37.Emscripten.clang"
  },
  "schemaVersion": "3.4.8",
  "updatedAt": "2022-07-25T01:44:12.894Z",
  "networkType": "ethereum",
  "devdoc": {
    "kind": "dev",
    "methods": {},
    "version": 1
  },
  "userdoc": {
    "kind": "user",
    "methods": {},
    "version": 1
  }
}